{
  "_format": "hh-sol-artifact-1",
  "contractName": "MedusaTokenFactory",
  "sourceName": "contracts/MedusaTokenFactory.sol",
  "abi": [
    {
      "inputs": [],
      "name": "Create2EmptyBytecode",
      "type": "error"
    },
    {
      "inputs": [],
      "name": "Create2FailedDeployment",
      "type": "error"
    },
    {
      "inputs": [
        {
          "internalType": "uint256",
          "name": "balance",
          "type": "uint256"
        },
        {
          "internalType": "uint256",
          "name": "needed",
          "type": "uint256"
        }
      ],
      "name": "Create2InsufficientBalance",
      "type": "error"
    },
    {
      "inputs": [
        {
          "internalType": "bytes32",
          "name": "_salt",
          "type": "bytes32"
        },
        {
          "internalType": "uint256",
          "name": "_tokenID",
          "type": "uint256"
        }
      ],
      "name": "computeTokenAddress",
      "outputs": [
        {
          "internalType": "address",
          "name": "",
          "type": "address"
        }
      ],
      "stateMutability": "view",
      "type": "function"
    },
    {
      "inputs": [
        {
          "internalType": "bytes32",
          "name": "_salt",
          "type": "bytes32"
        },
        {
          "internalType": "uint256",
          "name": "_tokenID",
          "type": "uint256"
        }
      ],
      "name": "deployToken",
      "outputs": [
        {
          "internalType": "address",
          "name": "",
          "type": "address"
        }
      ],
      "stateMutability": "nonpayable",
      "type": "function"
    },
    {
      "inputs": [
        {
          "internalType": "bytes32",
          "name": "",
          "type": "bytes32"
        }
      ],
      "name": "deployedTokens",
      "outputs": [
        {
          "internalType": "address",
          "name": "",
          "type": "address"
        }
      ],
      "stateMutability": "view",
      "type": "function"
    },
    {
      "inputs": [],
      "name": "latestTokenAddress",
      "outputs": [
        {
          "internalType": "address",
          "name": "",
          "type": "address"
        }
      ],
      "stateMutability": "view",
      "type": "function"
    }
  ],
  "bytecode": "0x608060405234801561001057600080fd5b50612453806100206000396000f3fe60806040523480156200001157600080fd5b5060043610620000525760003560e01c80630ba8316614620000575780633be1f13d14620000795780636130959614620000af578063c4b114ba14620000e5575b600080fd5b620000616200011b565b60405162000070919062000588565b60405180910390f35b62000097600480360381019062000091919062000620565b6200013f565b604051620000a6919062000588565b60405180910390f35b620000cd6004803603810190620000c7919062000667565b62000339565b604051620000dc919062000588565b60405180910390f35b620001036004803603810190620000fd919062000620565b6200036c565b60405162000112919062000588565b60405180910390f35b60008054906101000a900473ffffffffffffffffffffffffffffffffffffffff1681565b600082600073ffffffffffffffffffffffffffffffffffffffff166001600083815260200190815260200160002060009054906101000a900473ffffffffffffffffffffffffffffffffffffffff1673ffffffffffffffffffffffffffffffffffffffff1614620001e7576040517f08c379a0000000000000000000000000000000000000000000000000000000008152600401620001de9062000720565b60405180910390fd5b6200025e60008560405180602001620002009062000535565b6020820181038252601f19601f820116604052508660405160200162000227919062000753565b60405160208183030381529060405260405160200162000249929190620007e9565b604051602081830303815290604052620003f2565b6000806101000a81548173ffffffffffffffffffffffffffffffffffffffff021916908373ffffffffffffffffffffffffffffffffffffffff16021790555060008054906101000a900473ffffffffffffffffffffffffffffffffffffffff166001600086815260200190815260200160002060006101000a81548173ffffffffffffffffffffffffffffffffffffffff021916908373ffffffffffffffffffffffffffffffffffffffff16021790555060008054906101000a900473ffffffffffffffffffffffffffffffffffffffff1691505092915050565b60016020528060005260406000206000915054906101000a900473ffffffffffffffffffffffffffffffffffffffff1681565b6000620003ea8360405180602001620003859062000535565b6020820181038252601f19601f8201166040525084604051602001620003ac919062000753565b604051602081830303815290604052604051602001620003ce929190620007e9565b60405160208183030381529060405280519060200120620004f3565b905092915050565b6000834710156200043e5747846040517fe4bbecac0000000000000000000000000000000000000000000000000000000081526004016200043592919062000811565b60405180910390fd5b60008251036200047a576040517f4ca249dc00000000000000000000000000000000000000000000000000000000815260040160405180910390fd5b8282516020840186f59050600073ffffffffffffffffffffffffffffffffffffffff168173ffffffffffffffffffffffffffffffffffffffff1603620004ec576040517f741752c200000000000000000000000000000000000000000000000000000000815260040160405180910390fd5b9392505050565b6000620005028383306200050a565b905092915050565b6000604051836040820152846020820152828152600b810160ff815360558120925050509392505050565b611bdf806200083f83390190565b600073ffffffffffffffffffffffffffffffffffffffff82169050919050565b6000620005708262000543565b9050919050565b620005828162000563565b82525050565b60006020820190506200059f600083018462000577565b92915050565b600080fd5b6000819050919050565b620005bf81620005aa565b8114620005cb57600080fd5b50565b600081359050620005df81620005b4565b92915050565b6000819050919050565b620005fa81620005e5565b81146200060657600080fd5b50565b6000813590506200061a81620005ef565b92915050565b600080604083850312156200063a5762000639620005a5565b5b60006200064a85828601620005ce565b92505060206200065d8582860162000609565b9150509250929050565b60006020828403121562000680576200067f620005a5565b5b60006200069084828501620005ce565b91505092915050565b600082825260208201905092915050565b7f4d656475736120746f6b656e20616c7265616479206465706c6f79656420666f60008201527f7220746869732073616c74000000000000000000000000000000000000000000602082015250565b600062000708602b8362000699565b91506200071582620006aa565b604082019050919050565b600060208201905081810360008301526200073b81620006f9565b9050919050565b6200074d81620005e5565b82525050565b60006020820190506200076a600083018462000742565b92915050565b600081519050919050565b600081905092915050565b60005b83811015620007a657808201518184015260208101905062000789565b60008484015250505050565b6000620007bf8262000770565b620007cb81856200077b565b9350620007dd81856020860162000786565b80840191505092915050565b6000620007f78285620007b2565b9150620008058284620007b2565b91508190509392505050565b600060408201905062000828600083018562000742565b62000837602083018462000742565b939250505056fe60a0604052735ae19d2143d0faf684ebe0ec0f6b2e074aa42069600660006101000a81548173ffffffffffffffffffffffffffffffffffffffff021916908373ffffffffffffffffffffffffffffffffffffffff1602179055503480156200006657600080fd5b5060405162001bdf38038062001bdf83398181016040528101906200008c9190620005db565b600660009054906101000a900473ffffffffffffffffffffffffffffffffffffffff166040518060400160405280600681526020017f4d454455534100000000000000000000000000000000000000000000000000008152506040518060400160405280600681526020017f4d4544555341000000000000000000000000000000000000000000000000000081525081600390816200012c91906200087d565b5080600490816200013e91906200087d565b505050600073ffffffffffffffffffffffffffffffffffffffff168173ffffffffffffffffffffffffffffffffffffffff1603620001b65760006040517f1e4fbdf7000000000000000000000000000000000000000000000000000000008152600401620001ad9190620009a9565b60405180910390fd5b620001c7816200021860201b60201c565b5062000209600660009054906101000a900473ffffffffffffffffffffffffffffffffffffffff166c0869527521b1d6aa815ce40000620002de60201b60201c565b80608081815250505062000a9b565b6000600560009054906101000a900473ffffffffffffffffffffffffffffffffffffffff16905081600560006101000a81548173ffffffffffffffffffffffffffffffffffffffff021916908373ffffffffffffffffffffffffffffffffffffffff1602179055508173ffffffffffffffffffffffffffffffffffffffff168173ffffffffffffffffffffffffffffffffffffffff167f8be0079c531659141344cd1fd0a4f28419497f9722a3daafe3b4186f6b6457e060405160405180910390a35050565b600073ffffffffffffffffffffffffffffffffffffffff168273ffffffffffffffffffffffffffffffffffffffff1603620003535760006040517fec442f050000000000000000000000000000000000000000000000000000000081526004016200034a9190620009a9565b60405180910390fd5b62000367600083836200036b60201b60201c565b5050565b600073ffffffffffffffffffffffffffffffffffffffff168373ffffffffffffffffffffffffffffffffffffffff1603620003c1578060026000828254620003b49190620009f5565b9250508190555062000497565b60008060008573ffffffffffffffffffffffffffffffffffffffff1673ffffffffffffffffffffffffffffffffffffffff1681526020019081526020016000205490508181101562000450578381836040517fe450d38c000000000000000000000000000000000000000000000000000000008152600401620004479392919062000a41565b60405180910390fd5b8181036000808673ffffffffffffffffffffffffffffffffffffffff1673ffffffffffffffffffffffffffffffffffffffff16815260200190815260200160002081905550505b600073ffffffffffffffffffffffffffffffffffffffff168273ffffffffffffffffffffffffffffffffffffffff1603620004e257806002600082825403925050819055506200052f565b806000808473ffffffffffffffffffffffffffffffffffffffff1673ffffffffffffffffffffffffffffffffffffffff168152602001908152602001600020600082825401925050819055505b8173ffffffffffffffffffffffffffffffffffffffff168373ffffffffffffffffffffffffffffffffffffffff167fddf252ad1be2c89b69c2b068fc378daa952ba7f163c4a11628f55a4df523b3ef836040516200058e919062000a7e565b60405180910390a3505050565b600080fd5b6000819050919050565b620005b581620005a0565b8114620005c157600080fd5b50565b600081519050620005d581620005aa565b92915050565b600060208284031215620005f457620005f36200059b565b5b60006200060484828501620005c4565b91505092915050565b600081519050919050565b7f4e487b7100000000000000000000000000000000000000000000000000000000600052604160045260246000fd5b7f4e487b7100000000000000000000000000000000000000000000000000000000600052602260045260246000fd5b600060028204905060018216806200068f57607f821691505b602082108103620006a557620006a462000647565b5b50919050565b60008190508160005260206000209050919050565b60006020601f8301049050919050565b600082821b905092915050565b6000600883026200070f7fffffffffffffffffffffffffffffffffffffffffffffffffffffffffffffffff82620006d0565b6200071b8683620006d0565b95508019841693508086168417925050509392505050565b6000819050919050565b60006200075e620007586200075284620005a0565b62000733565b620005a0565b9050919050565b6000819050919050565b6200077a836200073d565b62000792620007898262000765565b848454620006dd565b825550505050565b600090565b620007a96200079a565b620007b68184846200076f565b505050565b5b81811015620007de57620007d26000826200079f565b600181019050620007bc565b5050565b601f8211156200082d57620007f781620006ab565b6200080284620006c0565b8101602085101562000812578190505b6200082a6200082185620006c0565b830182620007bb565b50505b505050565b600082821c905092915050565b6000620008526000198460080262000832565b1980831691505092915050565b60006200086d83836200083f565b9150826002028217905092915050565b62000888826200060d565b67ffffffffffffffff811115620008a457620008a362000618565b5b620008b0825462000676565b620008bd828285620007e2565b600060209050601f831160018114620008f55760008415620008e0578287015190505b620008ec85826200085f565b8655506200095c565b601f1984166200090586620006ab565b60005b828110156200092f5784890151825560018201915060208501945060208101905062000908565b868310156200094f57848901516200094b601f8916826200083f565b8355505b6001600288020188555050505b505050505050565b600073ffffffffffffffffffffffffffffffffffffffff82169050919050565b6000620009918262000964565b9050919050565b620009a38162000984565b82525050565b6000602082019050620009c0600083018462000998565b92915050565b7f4e487b7100000000000000000000000000000000000000000000000000000000600052601160045260246000fd5b600062000a0282620005a0565b915062000a0f83620005a0565b925082820190508082111562000a2a5762000a29620009c6565b5b92915050565b62000a3b81620005a0565b82525050565b600060608201905062000a58600083018662000998565b62000a67602083018562000a30565b62000a76604083018462000a30565b949350505050565b600060208201905062000a95600083018462000a30565b92915050565b60805161112862000ab760003960006104af01526111286000f3fe608060405234801561001057600080fd5b50600436106100cf5760003560e01c8063715018a61161008c578063a5c42ef111610066578063a5c42ef114610204578063a9059cbb14610222578063dd62ed3e14610252578063f2fde38b14610282576100cf565b8063715018a6146101be5780638da5cb5b146101c857806395d89b41146101e6576100cf565b806306fdde03146100d4578063095ea7b3146100f257806318160ddd1461012257806323b872dd14610140578063313ce5671461017057806370a082311461018e575b600080fd5b6100dc61029e565b6040516100e99190610d7c565b60405180910390f35b61010c60048036038101906101079190610e37565b610330565b6040516101199190610e92565b60405180910390f35b61012a610353565b6040516101379190610ebc565b60405180910390f35b61015a60048036038101906101559190610ed7565b61035d565b6040516101679190610e92565b60405180910390f35b61017861038c565b6040516101859190610f46565b60405180910390f35b6101a860048036038101906101a39190610f61565b610395565b6040516101b59190610ebc565b60405180910390f35b6101c66103dd565b005b6101d06103f1565b6040516101dd9190610f9d565b60405180910390f35b6101ee61041b565b6040516101fb9190610d7c565b60405180910390f35b61020c6104ad565b6040516102199190610ebc565b60405180910390f35b61023c60048036038101906102379190610e37565b6104d1565b6040516102499190610e92565b60405180910390f35b61026c60048036038101906102679190610fb8565b6104f4565b6040516102799190610ebc565b60405180910390f35b61029c60048036038101906102979190610f61565b61057b565b005b6060600380546102ad90611027565b80601f01602080910402602001604051908101604052809291908181526020018280546102d990611027565b80156103265780601f106102fb57610100808354040283529160200191610326565b820191906000526020600020905b81548152906001019060200180831161030957829003601f168201915b5050505050905090565b60008061033b610601565b9050610348818585610609565b600191505092915050565b6000600254905090565b600080610368610601565b905061037585828561061b565b6103808585856106af565b60019150509392505050565b60006012905090565b60008060008373ffffffffffffffffffffffffffffffffffffffff1673ffffffffffffffffffffffffffffffffffffffff168152602001908152602001600020549050919050565b6103e56107a3565b6103ef600061082a565b565b6000600560009054906101000a900473ffffffffffffffffffffffffffffffffffffffff16905090565b60606004805461042a90611027565b80601f016020809104026020016040519081016040528092919081815260200182805461045690611027565b80156104a35780601f10610478576101008083540402835291602001916104a3565b820191906000526020600020905b81548152906001019060200180831161048657829003601f168201915b5050505050905090565b7f000000000000000000000000000000000000000000000000000000000000000081565b6000806104dc610601565b90506104e98185856106af565b600191505092915050565b6000600160008473ffffffffffffffffffffffffffffffffffffffff1673ffffffffffffffffffffffffffffffffffffffff16815260200190815260200160002060008373ffffffffffffffffffffffffffffffffffffffff1673ffffffffffffffffffffffffffffffffffffffff16815260200190815260200160002054905092915050565b6105836107a3565b600073ffffffffffffffffffffffffffffffffffffffff168173ffffffffffffffffffffffffffffffffffffffff16036105f55760006040517f1e4fbdf70000000000000000000000000000000000000000000000000000000081526004016105ec9190610f9d565b60405180910390fd5b6105fe8161082a565b50565b600033905090565b61061683838360016108f0565b505050565b600061062784846104f4565b90507fffffffffffffffffffffffffffffffffffffffffffffffffffffffffffffffff81146106a95781811015610699578281836040517ffb8f41b200000000000000000000000000000000000000000000000000000000815260040161069093929190611058565b60405180910390fd5b6106a8848484840360006108f0565b5b50505050565b600073ffffffffffffffffffffffffffffffffffffffff168373ffffffffffffffffffffffffffffffffffffffff16036107215760006040517f96c6fd1e0000000000000000000000000000000000000000000000000000000081526004016107189190610f9d565b60405180910390fd5b600073ffffffffffffffffffffffffffffffffffffffff168273ffffffffffffffffffffffffffffffffffffffff16036107935760006040517fec442f0500000000000000000000000000000000000000000000000000000000815260040161078a9190610f9d565b60405180910390fd5b61079e838383610ac7565b505050565b6107ab610601565b73ffffffffffffffffffffffffffffffffffffffff166107c96103f1565b73ffffffffffffffffffffffffffffffffffffffff1614610828576107ec610601565b6040517f118cdaa700000000000000000000000000000000000000000000000000000000815260040161081f9190610f9d565b60405180910390fd5b565b6000600560009054906101000a900473ffffffffffffffffffffffffffffffffffffffff16905081600560006101000a81548173ffffffffffffffffffffffffffffffffffffffff021916908373ffffffffffffffffffffffffffffffffffffffff1602179055508173ffffffffffffffffffffffffffffffffffffffff168173ffffffffffffffffffffffffffffffffffffffff167f8be0079c531659141344cd1fd0a4f28419497f9722a3daafe3b4186f6b6457e060405160405180910390a35050565b600073ffffffffffffffffffffffffffffffffffffffff168473ffffffffffffffffffffffffffffffffffffffff16036109625760006040517fe602df050000000000000000000000000000000000000000000000000000000081526004016109599190610f9d565b60405180910390fd5b600073ffffffffffffffffffffffffffffffffffffffff168373ffffffffffffffffffffffffffffffffffffffff16036109d45760006040517f94280d620000000000000000000000000000000000000000000000000000000081526004016109cb9190610f9d565b60405180910390fd5b81600160008673ffffffffffffffffffffffffffffffffffffffff1673ffffffffffffffffffffffffffffffffffffffff16815260200190815260200160002060008573ffffffffffffffffffffffffffffffffffffffff1673ffffffffffffffffffffffffffffffffffffffff168152602001908152602001600020819055508015610ac1578273ffffffffffffffffffffffffffffffffffffffff168473ffffffffffffffffffffffffffffffffffffffff167f8c5be1e5ebec7d5bd14f71427d1e84f3dd0314c0f7b2291e5b200ac8c7c3b92584604051610ab89190610ebc565b60405180910390a35b50505050565b600073ffffffffffffffffffffffffffffffffffffffff168373ffffffffffffffffffffffffffffffffffffffff1603610b19578060026000828254610b0d91906110be565b92505081905550610bec565b60008060008573ffffffffffffffffffffffffffffffffffffffff1673ffffffffffffffffffffffffffffffffffffffff16815260200190815260200160002054905081811015610ba5578381836040517fe450d38c000000000000000000000000000000000000000000000000000000008152600401610b9c93929190611058565b60405180910390fd5b8181036000808673ffffffffffffffffffffffffffffffffffffffff1673ffffffffffffffffffffffffffffffffffffffff16815260200190815260200160002081905550505b600073ffffffffffffffffffffffffffffffffffffffff168273ffffffffffffffffffffffffffffffffffffffff1603610c355780600260008282540392505081905550610c82565b806000808473ffffffffffffffffffffffffffffffffffffffff1673ffffffffffffffffffffffffffffffffffffffff168152602001908152602001600020600082825401925050819055505b8173ffffffffffffffffffffffffffffffffffffffff168373ffffffffffffffffffffffffffffffffffffffff167fddf252ad1be2c89b69c2b068fc378daa952ba7f163c4a11628f55a4df523b3ef83604051610cdf9190610ebc565b60405180910390a3505050565b600081519050919050565b600082825260208201905092915050565b60005b83811015610d26578082015181840152602081019050610d0b565b60008484015250505050565b6000601f19601f8301169050919050565b6000610d4e82610cec565b610d588185610cf7565b9350610d68818560208601610d08565b610d7181610d32565b840191505092915050565b60006020820190508181036000830152610d968184610d43565b905092915050565b600080fd5b600073ffffffffffffffffffffffffffffffffffffffff82169050919050565b6000610dce82610da3565b9050919050565b610dde81610dc3565b8114610de957600080fd5b50565b600081359050610dfb81610dd5565b92915050565b6000819050919050565b610e1481610e01565b8114610e1f57600080fd5b50565b600081359050610e3181610e0b565b92915050565b60008060408385031215610e4e57610e4d610d9e565b5b6000610e5c85828601610dec565b9250506020610e6d85828601610e22565b9150509250929050565b60008115159050919050565b610e8c81610e77565b82525050565b6000602082019050610ea76000830184610e83565b92915050565b610eb681610e01565b82525050565b6000602082019050610ed16000830184610ead565b92915050565b600080600060608486031215610ef057610eef610d9e565b5b6000610efe86828701610dec565b9350506020610f0f86828701610dec565b9250506040610f2086828701610e22565b9150509250925092565b600060ff82169050919050565b610f4081610f2a565b82525050565b6000602082019050610f5b6000830184610f37565b92915050565b600060208284031215610f7757610f76610d9e565b5b6000610f8584828501610dec565b91505092915050565b610f9781610dc3565b82525050565b6000602082019050610fb26000830184610f8e565b92915050565b60008060408385031215610fcf57610fce610d9e565b5b6000610fdd85828601610dec565b9250506020610fee85828601610dec565b9150509250929050565b7f4e487b7100000000000000000000000000000000000000000000000000000000600052602260045260246000fd5b6000600282049050600182168061103f57607f821691505b60208210810361105257611051610ff8565b5b50919050565b600060608201905061106d6000830186610f8e565b61107a6020830185610ead565b6110876040830184610ead565b949350505050565b7f4e487b7100000000000000000000000000000000000000000000000000000000600052601160045260246000fd5b60006110c982610e01565b91506110d483610e01565b92508282019050808211156110ec576110eb61108f565b5b9291505056fea264697066735822122052d1858ad8d0e8595ccfb82497f775b7b5029f8ae000699dd361d1bcc39f321664736f6c63430008140033a26469706673582212208aa708a03cd54cc3a963ec05232468e9e45fc4bc487ae8bbb5de8f6a19dae98f64736f6c63430008140033",
  "linkReferences": {},
  "deployedLinkReferences": {}
}