{
  "_format": "hh-sol-artifact-1",
  "contractName": "MedusaTokenFactory",
  "sourceName": "contracts/MedusaTokenFactory.sol",
  "abi": [
    {
      "inputs": [],
      "name": "Create2EmptyBytecode",
      "type": "error"
    },
    {
      "inputs": [],
      "name": "Create2FailedDeployment",
      "type": "error"
    },
    {
      "inputs": [
        {
          "internalType": "uint256",
          "name": "balance",
          "type": "uint256"
        },
        {
          "internalType": "uint256",
          "name": "needed",
          "type": "uint256"
        }
      ],
      "name": "Create2InsufficientBalance",
      "type": "error"
    },
    {
      "inputs": [
        {
          "internalType": "bytes32",
          "name": "_salt",
          "type": "bytes32"
        },
        {
          "internalType": "uint256",
          "name": "_tokenID",
          "type": "uint256"
        }
      ],
      "name": "computeTokenAddress",
      "outputs": [
        {
          "internalType": "address",
          "name": "",
          "type": "address"
        }
      ],
      "stateMutability": "view",
      "type": "function"
    },
    {
      "inputs": [
        {
          "internalType": "bytes32",
          "name": "_salt",
          "type": "bytes32"
        },
        {
          "internalType": "uint256",
          "name": "_tokenID",
          "type": "uint256"
        }
      ],
      "name": "deployToken",
      "outputs": [
        {
          "internalType": "address",
          "name": "",
          "type": "address"
        }
      ],
      "stateMutability": "nonpayable",
      "type": "function"
    },
    {
      "inputs": [
        {
          "internalType": "bytes32",
          "name": "",
          "type": "bytes32"
        }
      ],
      "name": "deployedTokens",
      "outputs": [
        {
          "internalType": "address",
          "name": "",
          "type": "address"
        }
      ],
      "stateMutability": "view",
      "type": "function"
    },
    {
      "inputs": [],
      "name": "latestTokenAddress",
      "outputs": [
        {
          "internalType": "address",
          "name": "",
          "type": "address"
        }
      ],
      "stateMutability": "view",
      "type": "function"
    }
  ],
  "bytecode": "0x608060405234801561001057600080fd5b50612779806100206000396000f3fe60806040523480156200001157600080fd5b5060043610620000525760003560e01c80630ba8316614620000575780633be1f13d14620000795780636130959614620000af578063c4b114ba14620000e5575b600080fd5b620000616200011b565b604051620000709190620004e1565b60405180910390f35b62000097600480360381019062000091919062000579565b6200013f565b604051620000a69190620004e1565b60405180910390f35b620000cd6004803603810190620000c79190620005c0565b62000292565b604051620000dc9190620004e1565b60405180910390f35b620001036004803603810190620000fd919062000579565b620002c5565b604051620001129190620004e1565b60405180910390f35b60008054906101000a900473ffffffffffffffffffffffffffffffffffffffff1681565b6000620001b8600084604051806020016200015a906200048e565b6020820181038252601f19601f820116604052508560405160200162000181919062000603565b604051602081830303815290604052604051602001620001a392919062000699565b6040516020818303038152906040526200034b565b6000806101000a81548173ffffffffffffffffffffffffffffffffffffffff021916908373ffffffffffffffffffffffffffffffffffffffff16021790555060008054906101000a900473ffffffffffffffffffffffffffffffffffffffff166001600085815260200190815260200160002060006101000a81548173ffffffffffffffffffffffffffffffffffffffff021916908373ffffffffffffffffffffffffffffffffffffffff16021790555060008054906101000a900473ffffffffffffffffffffffffffffffffffffffff16905092915050565b60016020528060005260406000206000915054906101000a900473ffffffffffffffffffffffffffffffffffffffff1681565b6000620003438360405180602001620002de906200048e565b6020820181038252601f19601f820116604052508460405160200162000305919062000603565b6040516020818303038152906040526040516020016200032792919062000699565b604051602081830303815290604052805190602001206200044c565b905092915050565b600083471015620003975747846040517fe4bbecac0000000000000000000000000000000000000000000000000000000081526004016200038e929190620006c1565b60405180910390fd5b6000825103620003d3576040517f4ca249dc00000000000000000000000000000000000000000000000000000000815260040160405180910390fd5b8282516020840186f59050600073ffffffffffffffffffffffffffffffffffffffff168173ffffffffffffffffffffffffffffffffffffffff160362000445576040517f741752c200000000000000000000000000000000000000000000000000000000815260040160405180910390fd5b9392505050565b60006200045b83833062000463565b905092915050565b6000604051836040820152846020820152828152600b810160ff815360558120925050509392505050565b61205580620006ef83390190565b600073ffffffffffffffffffffffffffffffffffffffff82169050919050565b6000620004c9826200049c565b9050919050565b620004db81620004bc565b82525050565b6000602082019050620004f86000830184620004d0565b92915050565b600080fd5b6000819050919050565b620005188162000503565b81146200052457600080fd5b50565b60008135905062000538816200050d565b92915050565b6000819050919050565b62000553816200053e565b81146200055f57600080fd5b50565b600081359050620005738162000548565b92915050565b60008060408385031215620005935762000592620004fe565b5b6000620005a38582860162000527565b9250506020620005b68582860162000562565b9150509250929050565b600060208284031215620005d957620005d8620004fe565b5b6000620005e98482850162000527565b91505092915050565b620005fd816200053e565b82525050565b60006020820190506200061a6000830184620005f2565b92915050565b600081519050919050565b600081905092915050565b60005b838110156200065657808201518184015260208101905062000639565b60008484015250505050565b60006200066f8262000620565b6200067b81856200062b565b93506200068d81856020860162000636565b80840191505092915050565b6000620006a7828562000662565b9150620006b5828462000662565b91508190509392505050565b6000604082019050620006d86000830185620005f2565b620006e76020830184620005f2565b939250505056fe60a0604052735ae19d2143d0faf684ebe0ec0f6b2e074aa42069600660006101000a81548173ffffffffffffffffffffffffffffffffffffffff021916908373ffffffffffffffffffffffffffffffffffffffff1602179055503480156200006657600080fd5b50604051620020553803806200205583398181016040528101906200008c9190620005db565b600660009054906101000a900473ffffffffffffffffffffffffffffffffffffffff166040518060400160405280600681526020017f4d454455534100000000000000000000000000000000000000000000000000008152506040518060400160405280600681526020017f4d4544555341000000000000000000000000000000000000000000000000000081525081600390816200012c91906200087d565b5080600490816200013e91906200087d565b505050600073ffffffffffffffffffffffffffffffffffffffff168173ffffffffffffffffffffffffffffffffffffffff1603620001b65760006040517f1e4fbdf7000000000000000000000000000000000000000000000000000000008152600401620001ad9190620009a9565b60405180910390fd5b620001c7816200021860201b60201c565b5062000209600660009054906101000a900473ffffffffffffffffffffffffffffffffffffffff166c0869527521b1d6aa815ce40000620002de60201b60201c565b80608081815250505062000a9b565b6000600560009054906101000a900473ffffffffffffffffffffffffffffffffffffffff16905081600560006101000a81548173ffffffffffffffffffffffffffffffffffffffff021916908373ffffffffffffffffffffffffffffffffffffffff1602179055508173ffffffffffffffffffffffffffffffffffffffff168173ffffffffffffffffffffffffffffffffffffffff167f8be0079c531659141344cd1fd0a4f28419497f9722a3daafe3b4186f6b6457e060405160405180910390a35050565b600073ffffffffffffffffffffffffffffffffffffffff168273ffffffffffffffffffffffffffffffffffffffff1603620003535760006040517fec442f050000000000000000000000000000000000000000000000000000000081526004016200034a9190620009a9565b60405180910390fd5b62000367600083836200036b60201b60201c565b5050565b600073ffffffffffffffffffffffffffffffffffffffff168373ffffffffffffffffffffffffffffffffffffffff1603620003c1578060026000828254620003b49190620009f5565b9250508190555062000497565b60008060008573ffffffffffffffffffffffffffffffffffffffff1673ffffffffffffffffffffffffffffffffffffffff1681526020019081526020016000205490508181101562000450578381836040517fe450d38c000000000000000000000000000000000000000000000000000000008152600401620004479392919062000a41565b60405180910390fd5b8181036000808673ffffffffffffffffffffffffffffffffffffffff1673ffffffffffffffffffffffffffffffffffffffff16815260200190815260200160002081905550505b600073ffffffffffffffffffffffffffffffffffffffff168273ffffffffffffffffffffffffffffffffffffffff1603620004e257806002600082825403925050819055506200052f565b806000808473ffffffffffffffffffffffffffffffffffffffff1673ffffffffffffffffffffffffffffffffffffffff168152602001908152602001600020600082825401925050819055505b8173ffffffffffffffffffffffffffffffffffffffff168373ffffffffffffffffffffffffffffffffffffffff167fddf252ad1be2c89b69c2b068fc378daa952ba7f163c4a11628f55a4df523b3ef836040516200058e919062000a7e565b60405180910390a3505050565b600080fd5b6000819050919050565b620005b581620005a0565b8114620005c157600080fd5b50565b600081519050620005d581620005aa565b92915050565b600060208284031215620005f457620005f36200059b565b5b60006200060484828501620005c4565b91505092915050565b600081519050919050565b7f4e487b7100000000000000000000000000000000000000000000000000000000600052604160045260246000fd5b7f4e487b7100000000000000000000000000000000000000000000000000000000600052602260045260246000fd5b600060028204905060018216806200068f57607f821691505b602082108103620006a557620006a462000647565b5b50919050565b60008190508160005260206000209050919050565b60006020601f8301049050919050565b600082821b905092915050565b6000600883026200070f7fffffffffffffffffffffffffffffffffffffffffffffffffffffffffffffffff82620006d0565b6200071b8683620006d0565b95508019841693508086168417925050509392505050565b6000819050919050565b60006200075e620007586200075284620005a0565b62000733565b620005a0565b9050919050565b6000819050919050565b6200077a836200073d565b62000792620007898262000765565b848454620006dd565b825550505050565b600090565b620007a96200079a565b620007b68184846200076f565b505050565b5b81811015620007de57620007d26000826200079f565b600181019050620007bc565b5050565b601f8211156200082d57620007f781620006ab565b6200080284620006c0565b8101602085101562000812578190505b6200082a6200082185620006c0565b830182620007bb565b50505b505050565b600082821c905092915050565b6000620008526000198460080262000832565b1980831691505092915050565b60006200086d83836200083f565b9150826002028217905092915050565b62000888826200060d565b67ffffffffffffffff811115620008a457620008a362000618565b5b620008b0825462000676565b620008bd828285620007e2565b600060209050601f831160018114620008f55760008415620008e0578287015190505b620008ec85826200085f565b8655506200095c565b601f1984166200090586620006ab565b60005b828110156200092f5784890151825560018201915060208501945060208101905062000908565b868310156200094f57848901516200094b601f8916826200083f565b8355505b6001600288020188555050505b505050505050565b600073ffffffffffffffffffffffffffffffffffffffff82169050919050565b6000620009918262000964565b9050919050565b620009a38162000984565b82525050565b6000602082019050620009c0600083018462000998565b92915050565b7f4e487b7100000000000000000000000000000000000000000000000000000000600052601160045260246000fd5b600062000a0282620005a0565b915062000a0f83620005a0565b925082820190508082111562000a2a5762000a29620009c6565b5b92915050565b62000a3b81620005a0565b82525050565b600060608201905062000a58600083018662000998565b62000a67602083018562000a30565b62000a76604083018462000a30565b949350505050565b600060208201905062000a95600083018462000a30565b92915050565b60805161159e62000ab76000396000610743015261159e6000f3fe608060405234801561001057600080fd5b50600436106100f55760003560e01c806370a0823111610097578063a5c42ef111610066578063a5c42ef114610250578063a9059cbb1461026e578063dd62ed3e1461029e578063f2fde38b146102ce576100f5565b806370a08231146101da578063715018a61461020a5780638da5cb5b1461021457806395d89b4114610232576100f5565b806323b872dd116100d357806323b872dd14610166578063313ce5671461019657806332f289cf146101b457806367272999146101d0576100f5565b806306fdde03146100fa578063095ea7b31461011857806318160ddd14610148575b600080fd5b6101026102ea565b60405161010f9190611010565b60405180910390f35b610132600480360381019061012d91906110cb565b61037c565b60405161013f9190611126565b60405180910390f35b61015061039f565b60405161015d9190611150565b60405180910390f35b610180600480360381019061017b919061116b565b6103a9565b60405161018d9190611126565b60405180910390f35b61019e6103d8565b6040516101ab91906111da565b60405180910390f35b6101ce60048036038101906101c991906111f5565b6103e1565b005b6101d8610550565b005b6101f460048036038101906101ef91906111f5565b610629565b6040516102019190611150565b60405180910390f35b610212610671565b005b61021c610685565b6040516102299190611231565b60405180910390f35b61023a6106af565b6040516102479190611010565b60405180910390f35b610258610741565b6040516102659190611150565b60405180910390f35b610288600480360381019061028391906110cb565b610765565b6040516102959190611126565b60405180910390f35b6102b860048036038101906102b3919061124c565b610788565b6040516102c59190611150565b60405180910390f35b6102e860048036038101906102e391906111f5565b61080f565b005b6060600380546102f9906112bb565b80601f0160208091040260200160405190810160405280929190818152602001828054610325906112bb565b80156103725780601f1061034757610100808354040283529160200191610372565b820191906000526020600020905b81548152906001019060200180831161035557829003601f168201915b5050505050905090565b600080610387610895565b905061039481858561089d565b600191505092915050565b6000600254905090565b6000806103b4610895565b90506103c18582856108af565b6103cc858585610943565b60019150509392505050565b60006012905090565b6103e9610a37565b60008173ffffffffffffffffffffffffffffffffffffffff166370a08231306040518263ffffffff1660e01b81526004016104249190611231565b602060405180830381865afa158015610441573d6000803e3d6000fd5b505050506040513d601f19601f820116820180604052508101906104659190611301565b905060008273ffffffffffffffffffffffffffffffffffffffff1663a9059cbb600660009054906101000a900473ffffffffffffffffffffffffffffffffffffffff16846040518363ffffffff1660e01b81526004016104c692919061132e565b6020604051808303816000875af11580156104e5573d6000803e3d6000fd5b505050506040513d601f19601f820116820180604052508101906105099190611383565b90508061054b576040517f08c379a0000000000000000000000000000000000000000000000000000000008152600401610542906113fc565b60405180910390fd5b505050565b610558610a37565b6000600660009054906101000a900473ffffffffffffffffffffffffffffffffffffffff1673ffffffffffffffffffffffffffffffffffffffff16476040516105a09061144d565b60006040518083038185875af1925050503d80600081146105dd576040519150601f19603f3d011682016040523d82523d6000602084013e6105e2565b606091505b5050905080610626576040517f08c379a000000000000000000000000000000000000000000000000000000000815260040161061d906114ae565b60405180910390fd5b50565b60008060008373ffffffffffffffffffffffffffffffffffffffff1673ffffffffffffffffffffffffffffffffffffffff168152602001908152602001600020549050919050565b610679610a37565b6106836000610abe565b565b6000600560009054906101000a900473ffffffffffffffffffffffffffffffffffffffff16905090565b6060600480546106be906112bb565b80601f01602080910402602001604051908101604052809291908181526020018280546106ea906112bb565b80156107375780601f1061070c57610100808354040283529160200191610737565b820191906000526020600020905b81548152906001019060200180831161071a57829003601f168201915b5050505050905090565b7f000000000000000000000000000000000000000000000000000000000000000081565b600080610770610895565b905061077d818585610943565b600191505092915050565b6000600160008473ffffffffffffffffffffffffffffffffffffffff1673ffffffffffffffffffffffffffffffffffffffff16815260200190815260200160002060008373ffffffffffffffffffffffffffffffffffffffff1673ffffffffffffffffffffffffffffffffffffffff16815260200190815260200160002054905092915050565b610817610a37565b600073ffffffffffffffffffffffffffffffffffffffff168173ffffffffffffffffffffffffffffffffffffffff16036108895760006040517f1e4fbdf70000000000000000000000000000000000000000000000000000000081526004016108809190611231565b60405180910390fd5b61089281610abe565b50565b600033905090565b6108aa8383836001610b84565b505050565b60006108bb8484610788565b90507fffffffffffffffffffffffffffffffffffffffffffffffffffffffffffffffff811461093d578181101561092d578281836040517ffb8f41b2000000000000000000000000000000000000000000000000000000008152600401610924939291906114ce565b60405180910390fd5b61093c84848484036000610b84565b5b50505050565b600073ffffffffffffffffffffffffffffffffffffffff168373ffffffffffffffffffffffffffffffffffffffff16036109b55760006040517f96c6fd1e0000000000000000000000000000000000000000000000000000000081526004016109ac9190611231565b60405180910390fd5b600073ffffffffffffffffffffffffffffffffffffffff168273ffffffffffffffffffffffffffffffffffffffff1603610a275760006040517fec442f05000000000000000000000000000000000000000000000000000000008152600401610a1e9190611231565b60405180910390fd5b610a32838383610d5b565b505050565b610a3f610895565b73ffffffffffffffffffffffffffffffffffffffff16610a5d610685565b73ffffffffffffffffffffffffffffffffffffffff1614610abc57610a80610895565b6040517f118cdaa7000000000000000000000000000000000000000000000000000000008152600401610ab39190611231565b60405180910390fd5b565b6000600560009054906101000a900473ffffffffffffffffffffffffffffffffffffffff16905081600560006101000a81548173ffffffffffffffffffffffffffffffffffffffff021916908373ffffffffffffffffffffffffffffffffffffffff1602179055508173ffffffffffffffffffffffffffffffffffffffff168173ffffffffffffffffffffffffffffffffffffffff167f8be0079c531659141344cd1fd0a4f28419497f9722a3daafe3b4186f6b6457e060405160405180910390a35050565b600073ffffffffffffffffffffffffffffffffffffffff168473ffffffffffffffffffffffffffffffffffffffff1603610bf65760006040517fe602df05000000000000000000000000000000000000000000000000000000008152600401610bed9190611231565b60405180910390fd5b600073ffffffffffffffffffffffffffffffffffffffff168373ffffffffffffffffffffffffffffffffffffffff1603610c685760006040517f94280d62000000000000000000000000000000000000000000000000000000008152600401610c5f9190611231565b60405180910390fd5b81600160008673ffffffffffffffffffffffffffffffffffffffff1673ffffffffffffffffffffffffffffffffffffffff16815260200190815260200160002060008573ffffffffffffffffffffffffffffffffffffffff1673ffffffffffffffffffffffffffffffffffffffff168152602001908152602001600020819055508015610d55578273ffffffffffffffffffffffffffffffffffffffff168473ffffffffffffffffffffffffffffffffffffffff167f8c5be1e5ebec7d5bd14f71427d1e84f3dd0314c0f7b2291e5b200ac8c7c3b92584604051610d4c9190611150565b60405180910390a35b50505050565b600073ffffffffffffffffffffffffffffffffffffffff168373ffffffffffffffffffffffffffffffffffffffff1603610dad578060026000828254610da19190611534565b92505081905550610e80565b60008060008573ffffffffffffffffffffffffffffffffffffffff1673ffffffffffffffffffffffffffffffffffffffff16815260200190815260200160002054905081811015610e39578381836040517fe450d38c000000000000000000000000000000000000000000000000000000008152600401610e30939291906114ce565b60405180910390fd5b8181036000808673ffffffffffffffffffffffffffffffffffffffff1673ffffffffffffffffffffffffffffffffffffffff16815260200190815260200160002081905550505b600073ffffffffffffffffffffffffffffffffffffffff168273ffffffffffffffffffffffffffffffffffffffff1603610ec95780600260008282540392505081905550610f16565b806000808473ffffffffffffffffffffffffffffffffffffffff1673ffffffffffffffffffffffffffffffffffffffff168152602001908152602001600020600082825401925050819055505b8173ffffffffffffffffffffffffffffffffffffffff168373ffffffffffffffffffffffffffffffffffffffff167fddf252ad1be2c89b69c2b068fc378daa952ba7f163c4a11628f55a4df523b3ef83604051610f739190611150565b60405180910390a3505050565b600081519050919050565b600082825260208201905092915050565b60005b83811015610fba578082015181840152602081019050610f9f565b60008484015250505050565b6000601f19601f8301169050919050565b6000610fe282610f80565b610fec8185610f8b565b9350610ffc818560208601610f9c565b61100581610fc6565b840191505092915050565b6000602082019050818103600083015261102a8184610fd7565b905092915050565b600080fd5b600073ffffffffffffffffffffffffffffffffffffffff82169050919050565b600061106282611037565b9050919050565b61107281611057565b811461107d57600080fd5b50565b60008135905061108f81611069565b92915050565b6000819050919050565b6110a881611095565b81146110b357600080fd5b50565b6000813590506110c58161109f565b92915050565b600080604083850312156110e2576110e1611032565b5b60006110f085828601611080565b9250506020611101858286016110b6565b9150509250929050565b60008115159050919050565b6111208161110b565b82525050565b600060208201905061113b6000830184611117565b92915050565b61114a81611095565b82525050565b60006020820190506111656000830184611141565b92915050565b60008060006060848603121561118457611183611032565b5b600061119286828701611080565b93505060206111a386828701611080565b92505060406111b4868287016110b6565b9150509250925092565b600060ff82169050919050565b6111d4816111be565b82525050565b60006020820190506111ef60008301846111cb565b92915050565b60006020828403121561120b5761120a611032565b5b600061121984828501611080565b91505092915050565b61122b81611057565b82525050565b60006020820190506112466000830184611222565b92915050565b6000806040838503121561126357611262611032565b5b600061127185828601611080565b925050602061128285828601611080565b9150509250929050565b7f4e487b7100000000000000000000000000000000000000000000000000000000600052602260045260246000fd5b600060028204905060018216806112d357607f821691505b6020821081036112e6576112e561128c565b5b50919050565b6000815190506112fb8161109f565b92915050565b60006020828403121561131757611316611032565b5b6000611325848285016112ec565b91505092915050565b60006040820190506113436000830185611222565b6113506020830184611141565b9392505050565b6113608161110b565b811461136b57600080fd5b50565b60008151905061137d81611357565b92915050565b60006020828403121561139957611398611032565b5b60006113a78482850161136e565b91505092915050565b7f4661696c656420746f20636c61696d20455243323020746f6b656e7300000000600082015250565b60006113e6601c83610f8b565b91506113f1826113b0565b602082019050919050565b60006020820190508181036000830152611415816113d9565b9050919050565b600081905092915050565b50565b600061143760008361141c565b915061144282611427565b600082019050919050565b60006114588261142a565b9150819050919050565b7f4661696c656420746f20636c61696d2045544800000000000000000000000000600082015250565b6000611498601383610f8b565b91506114a382611462565b602082019050919050565b600060208201905081810360008301526114c78161148b565b9050919050565b60006060820190506114e36000830186611222565b6114f06020830185611141565b6114fd6040830184611141565b949350505050565b7f4e487b7100000000000000000000000000000000000000000000000000000000600052601160045260246000fd5b600061153f82611095565b915061154a83611095565b925082820190508082111561156257611561611505565b5b9291505056fea26469706673582212203207a4848cda0d8ce9b2513790927236786c69cf3bfeb53152070ace43255d4b64736f6c63430008140033a2646970667358221220815a81e237adf31743723eeba2a8c05c5728dec0430c4a8fbc0dfccebe8b461764736f6c63430008140033",
  "linkReferences": {},
  "deployedLinkReferences": {}
}